:100000000C949F030C94C7030C94C7030C942E20EC
:100010000C942E200C942E200C94C7030C94C70330
:100020000C94C7030C94C7030C94C7030C94C70328
:100030000C94C7030C94C7030C94C7030C94C70318
:100040000C949C0D0C94C7030C94330A0C94650A11
:100050000C94C7030C94C7030C94C7030C94C703F8
:100060000C94B52E0C94C70300407A10F35A00A0EC
:10007000724E18090010A5D4E80000E87648170071
:1000800000E40B54020000CA9A3B000000E1F505B1
:10009000000080969800000040420F000000A086FB
:1000A00001000000102700000000E803000000002D
:1000B0006400000000000A000000000001000000D1
:1000C00000002C76D888DC674F0823DFC1DFAE59EB
:1000D000E1B1B796E5E3E453C63AE651997696E87E
:1000E000E6C28426EB898C9B62ED407C6FFCEFBC02
:1000F0009C9F40F2BAA56FA5F490055A2AF75C932D
:100100006B6CF9676DC11BFCE0E40D47FEF520E662
:10011000B500D0ED902E0300943577050080841E45
:10012000080000204E0A000000C80C333333330FA0
:10013000986E12831141EF8D2114893BE65516CF3D
:10014000FEE6DB18D1844B381BF77C1D901DA4BB49
:10015000E424203284725E228100C9F124ECA1E5FE
:100160003D274661696C656420746F207075626C10
:10017000697368206865617274626561743A200011
:100180005075626C697368206F6B0053656E6469AB
:100190006E67206865617274626561743A2000461A
:1001A00061696C656420746F207075626C69736836
:1001B0002073656E736F7220646174613A2000531E
:1001C000656E64696E672073656E736F723A2000A6
:1001D00057696C6C20726573657420616E6420745D
:1001E000727920616761696E2E2E2E004D51545434
:1001F00020636F6E6E656374206661696C65640070
:1002000053756273637269626564206661696C65C7
:10021000643A20005375636365737366756C6C791B
:100220002073756273637269626564005075626CF5
:1002300069736820636F6E6E6563746564206D65B5
:100240007373616765206661696C65643A20004379
:100250006F6E6E656374656420746F204D515454E5
:100260002062726F6B6572005265636569766564C2
:1002700020736F6D6520646174613A2000455252AD
:100280004F522120536F696C2073656E736F72201B
:100290006E6F7420666F756E6400436F6E6E65637B
:1002A00074696E6720746F20736F696C2073656E5C
:1002B000736F722E2E2E00537563636573736675AC
:1002C0006C6C7920636F6E6E656374656420746F07
:1002D00020434F322073656E736F722100436F7538
:1002E0006C64206E6F742066696E64206120766194
:1002F0006C696420434F322073656E736F722C20DB
:10030000636865636B20776972696E672100436F6C
:100310006E6E656374696E6720746F20434F322080
:1003200073656E736F722E2E2E0053756363657343
:100330007366756C6C7920636F6E6E65637465644B
:1003400020746F20424D453238302073656E736FD4
:10035000722100436F756C64206E6F742066696E45
:100360006420612076616C696420424D45323830EA
:100370002073656E736F722C20636865636B2077E2
:100380006972696E672100436F6E6E656374696E92
:100390006720746F20424D453238302073656E738C
:1003A0006F722E2E2E00436F6E6E6563746564202F
:1003B000746F205769666921004661696C65642025
:1003C000746F20636F6E6E6563742C207265736545
:1003D0007474696E6700417474656D7074696E67DA
:1003E00020746F20636F6E6E65637420746F205786
:1003F000694669206E6574776F726B2E2E2E0049E8
:100400006E697469616C697A696E6720686172648B
:10041000776172652073657474696E67732E2E2E12
:1004200000000000080002010000030407000000B3
:1004300000000000000001020408102040800102BA
:10044000040810200102040810208004040404049D
:100450000404040202020202020303030303030270
:1004600000000000230026002900000000002500F5
:1004700028002B0000000000240027002A00496EFD
:10048000697469616C697A696E6720455350206DA3
:100490006F64756C6500446973636F6E6E65637439
:1004A000696E6720004661696C656420746F20770F
:1004B0007269746520746F20736F636B6574004E8E
:1004C0006F20736F636B657420617661696C616224
:1004D0006C6500436F6E6E656374696E6720746F40
:1004E0000025642E25642E25642E2564003E3E3EA4
:1004F0002054494D454F5554203E3E3E004E6F20FE
:1005000074616720666F756E6400456E6420746167
:1005100067206E6F7420666F756E6400446174614D
:10052000207061636B65742073656E642065727200
:100530006F72202832290044617461207061636BFE
:1005400065742073656E64206572726F7220283145
:10055000290041542B43495053454E443D25642CBA
:1005600025750054494D454F55543A005461672054
:10057000434C4F534544206E6F7420666F756E6414
:100580000041542B434950434C4F53453D25640093
:1005900041542B43495053544152543D25642C221D
:1005A000554450222C222573222C302C25752C32B8
:1005B0000041542B43495053544152543D25642C1F
:1005C0002253534C222C222573222C257500415492
:1005D0002B43495053534C53495A453D34303936D7
:1005E0000041542B43495053544152543D25642CEF
:1005F00022544350222C222573222C25750041546D
:100600002B474D520053444B2076657273696F6ED1
:100610003A000D0A0041542B43495053544154555C
:1006200053002B4349505354415455533A25642C9D
:100630000041542B43495053544154555300535493
:10064000415455533A000D0A004661696C656420B7
:10065000636F6E6E656374696E6720746F00436FBD
:100660006E6E656374656420746F0041542B43574C
:100670004A41505F4355523D222573222C22257357
:10068000220041542B4357444843503D312C310004
:1006900041542B43574155544F434F4E4E3D30002C
:1006A00041542B43495044494E464F3D310041543B
:1006B0002B4349504D55583D310041542B43574D24
:1006C0004F44453D3100415445300041542B525375
:1006D0005400496E6974696C697A6174696F6E203F
:1006E0007375636365737366756C202D0057617253
:1006F0006E696E673A20556E737570706F727465AF
:1007000064206669726D776172650043616E6E6F19
:100710007420696E697469616C697A65204553500B
:10072000206D6F64756C6500415400004E07950A9A
:10073000421F36224C24BE25152D8207252D11245B
:100740001FBECFEFD8E0DEBFCDBF13E0A0E0B1E029
:10075000E6EBF6E702C005900D92AE3EB107D9F781
:1007600026E0AEEEB3E001C01D92A23FB207E1F772
:1007700013E0CDE9D3E004C02197FE010E944C3381
:10078000C639D107C9F70E941B0B0C944E3B0C9441
:100790000000EF92FF920F931F93CF93DF9300D04F
:1007A00000D000D0CDB7DEB7EDB6FEB6CA010196D7
:1007B0002DB73EB7281B390B0FB6F8943EBF0FBEBE
:1007C0002DBF0DB71EB70F5F1F4FFB01D8019B0157
:1007D000240F351FE217F30719F081918D93FACF9B
:1007E000F801E40FF51F108268E672E087E095E0FB
:1007F0000E94690BB801CE0101960E94E10FBE0173
:100800006F5F7F4F87E095E00E94BA0BCE010196A3
:100810000E94730F0FB6F894FEBE0FBEEDBE269673
:100820000FB6F894DEBF0FBECDBFDF91CF911F9101
:100830000F91FF90EF900895CF93DF9300D000D0F9
:1008400000D0CDB7DEB726E031E04EE151E0BA018D
:100850008EEE93E00E94E31C882309F45EC06FE4EF
:1008600072E087E095E00E94A80B44EC51E068E557
:1008700071E08EEE93E00E94DB1E882339F06BEE70
:1008800071E087E095E00E94CC0B1BC06CE272E047
:1008900087E095E00E94690B8EEE93E00E943C1F7A
:1008A0004AE0BC01CE0101960E940D10BE016F5FAF
:1008B0007F4F87E095E00E94BA0BCE0101960E941F
:1008C000730F41E063E371E08EEE93E00E94E91E56
:1008D000882339F064E172E087E095E00E94A80B7C
:1008E0002AC060E072E087E095E00E94690B8EEE1E
:1008F00093E00E943C1F4AE0BC01CE0101960E9499
:100900000D10BE016F5F7F4F87E095E00E94BA0B2C
:10091000CE0101960E94730F0EC06CEE71E087E06D
:1009200095E00E94A80B60ED71E087E095E00E94E1
:10093000A80B0E9468358EEE93E00E94F81A269666
:100940000FB6F894DEBF0FBECDBFDF91CF910895F3
:1009500026E040E855E260E070E087E095E00E9424
:10096000CA0940E855E260E070E084EA94E00E9441
:100970002C216FEF73E087E095E00E94A80B66EDF5
:1009800073E087E095E00E94A80B84EA94E00E945F
:10099000F0214DE851E06DE971E08BEF95E00E94A8
:1009A000042268E873E180E090E00E94170E8BEF6C
:1009B00095E00E941322813099F069EB73E087E0A3
:1009C00095E00E94A80B4DE851E06DE971E08BEFD6
:1009D00095E00E94042268EE73E080E090E0E5CFAD
:1009E00066EA73E087E095E00E94A80B0E941C0471
:1009F00067E873E087E095E00E94A80B8EEC94E036
:100A00000E946314811107C063E573E087E095E0FD
:100A10000E94A80BFFCF6AE273E087E095E00E9496
:100A2000A80B6EE073E087E095E00E94A80B6FE0F2
:100A300070E083EC94E00E94C325811107C06DED46
:100A400072E087E095E00E94A80BFFCF67EB72E0B1
:100A500087E095E00E94A80B6AE972E087E095E0E4
:100A60000E94A80B21E04FEF66E385EC94E00E9422
:100A70002618811107C06DE772E087E095E00E94BB
:100A8000A80BFFCF68E072E087E095E00E949B0B27
:100A900085EC94E00E94A616AB01BC0120E130E099
:100AA00087E095E00E94530C60E08EE00E94DF0E2C
:100AB00067E272E087E095E00C94CC0B0F931F93F4
:100AC000CF93DF93CDB7DEB72C970FB6F894DEBF88
:100AD0000FBECDBF0E94E60D0091950410919604C3
:100AE000012E000C220B330BDC01CB01801B910B80
:100AF000A20BB30B81369A4EAF4FBF4F08F45DC0C7
:100B00000E94E60D70939604609395046AE372E088
:100B1000CE0107960E94E10F0E94E60DAB01BC01D9
:100B2000CE0107960E94761063E572E0CE0107962B
:100B30000E9467108EEE93E00E94FC1C8823C9F18E
:100B40006BE871E087E095E00E94690BBE01695F88
:100B50007F4F87E095E00E94BA0B4F81588568E58A
:100B600071E08EEE93E00E94DB1E882339F060E88E
:100B700071E087E095E00E94A80B1BC062E671E07F
:100B800087E095E00E94690B8EEE93E00E943C1F87
:100B90004AE0BC01CE0101960E940D10BE016F5FBC
:100BA0007F4F87E095E00E94BA0BCE0101960E942C
:100BB000730FCE0107960E94730F2C960FB6F89410
:100BC000DEBF0FBECDBFDF91CF911F910F91089572
:100BD0008EE00E94990EBC01990F880B990B0E9420
:100BE000F50720E030E040EA50E40E94810820E070
:100BF00030E040E85AE30E94810820E030E040E61F
:100C000050E40E94810820E030E0A9010E9487079B
:100C100008954F925F926F927F928F929F92AF92C0
:100C2000BF92CF92DF92EF92FF920F931F93CF93D9
:100C3000DF93CDB7DEB760970FB6F894DEBF0FBE77
:100C4000CDBF0E94E60D0091930410919404012EF3
:100C5000000C220B330BDC01CB01801B910BA20B90
:100C6000B30B89389341A105B10508F4BAC00E94BD
:100C7000E60D70939404609393048EEC94E00E94CC
:100C80006C142B013C018EEC94E00E9403154B0187
:100C90005C0160E085EC94E00E9407178C010E94E3
:100CA000E8056B017C0183EC94E00E94CC256D8704
:100CB0007E878F87988B67E672E0CE0107960E9449
:100CC000E10FB301A201CE0107960E94A71065E8CB
:100CD00072E0CE0107960E946710B501A401CE0113
:100CE00007960E94A71062E972E0CE0107960E9463
:100CF0006710B80180E090E00E94F307AB01BC01EF
:100D0000CE0107960E94A7106FE972E0CE01079608
:100D10000E946710B701A601CE0107960E94A71096
:100D200066EA72E0CE0107960E9467104D855E85E7
:100D30006F857889CE0107960E94A71068EE71E052
:100D4000CE0107960E9467108EEE93E00E94FC1C75
:100D50008823C9F16FEB71E087E095E00E94690B91
:100D6000BE01695F7F4F87E095E00E94BA0B4F811B
:100D7000588568E571E08EEE93E00E94DB1E8823C3
:100D800039F06EEA72E087E095E00E94CC0B1BC060
:100D90006FE971E087E095E00E94690B8EEE93E0C9
:100DA0000E943C1F4AE0BC01CE0101960E940D103A
:100DB000BE016F5F7F4F87E095E00E94BA0BCE01C6
:100DC00001960E94730F87E095E00E94A40B60EDEE
:100DD00077E080E090E00E94170ECE0107960E9417
:100DE000730F60960FB6F894DEBF0FBECDBFDF91D4
:100DF000CF911F910F91FF90EF90DF90CF90BF9018
:100E0000AF909F908F907F906F905F904F900895DC
:100E1000CF92DF92EF92FF920F931F938EEE93E0AB
:100E20000E94F81A81112CC00E94E60D00918F04D7
:100E30001091900420919104309192046B017C01F7
:100E4000C01AD10AE20AF30A49EEC41643E0D406F6
:100E5000E104F104CCF060938F04709390048093CC
:100E60009104909392040E941C04882369F01092CC
:100E70008F0410929004109291041092920404C076
:100E80008EEE93E00E94FC1C0E945E051F910F9164
:100E9000FF90EF90DF90CF900C9409060F931F9373
:100EA00000E020E040E060E081E095E00E940E0B71
:100EB0008EEC94E00E94031160E070E085EC94E019
:100EC0000E94011683EC94E00E94C22520E043E0DA
:100ED00062E084EA94E00E94012187E994E00E94A4
:100EE0008123409178015091790107E914E029ECC0
:100EF00033E06AE771E08EEE93E00E94D5181F910F
:100F00000F91089584EA94E00C94A8205058BB27D0
:100F1000AA270E949E070C9447080E94390838F0BF
:100F20000E94400820F039F49F3F19F426F40C94F5
:100F300036080EF4E095E7FB0C943008E92F0E9488
:100F4000580858F3BA17620773078407950720F00B
:100F500079F4A6F50C947A080EF4E0950B2EBA2FCE
:100F6000A02D0B01B90190010C01CA01A0011124AF
:100F7000FF27591B99F0593F50F4503E68F11A165B
:100F8000F040A22F232F342F4427585FF3CF4695EC
:100F900037952795A795F0405395C9F77EF41F160E
:100FA000BA0B620B730B840BBAF09150A1F0FF0FD8
:100FB000BB1F661F771F881FC2F70EC0BA0F621FC4
:100FC000731F841F48F4879577956795B795F795B4
:100FD0009E3F08F0B0CF9395880F08F09927EE0F49
:100FE000979587950895E89409C097FB3EF49095EE
:100FF0008095709561957F4F8F4F9F4F9923A9F0F2
:10100000F92F96E9BB279395F69587957795679580
:10101000B795F111F8CFFAF4BB0F11F460FF1BC0C4
:101020006F5F7F4F8F4F9F4F16C0882311F096E957
:1010300011C0772321F09EE8872F762F05C0662305
:1010400071F096E8862F70E060E02AF09A95660FBE
:10105000771F881FDAF7880F9695879597F9089577
:1010600097F99F6780E870E060E008959FEF80EC5B
:10107000089500240A9416161706180609060895FE
:1010800000240A9412161306140605060895092E64
:101090000394000C11F4882352F0BB0F40F4BF2BD3
:1010A00011F460FF04C06F5F7F4F8F4F9F4F089513
:1010B00057FD9058440F551F59F05F3F71F0479509
:1010C000880F97FB991F61F09F3F79F087950895EE
:1010D000121613061406551FF2CF4695F1DF08C00D
:1010E000161617061806991FF1CF8695710561052A
:1010F00008940895E894BB2766277727CB0197F9D2
:1011000008950E9494080C9447080E94390838F00A
:101110000E94400820F0952311F00C9430080C94A4
:10112000360811240C947B080E94580870F3959F90
:10113000C1F3950F50E0551F629FF001729FBB27CE
:10114000F00DB11D639FAA27F00DB11DAA1F649F6A
:101150006627B00DA11D661F829F2227B00DA11D1D
:10116000621F739FB00DA11D621F839FA00D611DA3
:10117000221F749F3327A00D611D231F849F600DC4
:10118000211D822F762F6A2F11249F5750409AF0ED
:10119000F1F088234AF0EE0FFF1FBB1F661F771F79
:1011A000881F91505040A9F79E3F510580F00C9444
:1011B00030080C947B085F3FE4F3983ED4F38695A7
:1011C00077956795B795F795E7959F5FC1F7FE2BE4
:1011D000880F911D9695879597F90895FC01918D3B
:1011E000228D892F90E0805C9F4F821B91098F7325
:1011F00099270895FC01918D828D981731F0828D89
:10120000E80FF11D858D90E008958FEF9FEF089511
:10121000FC01918D828D981761F0828DDF01A80FFE
:10122000B11D5D968C91928D9F5F9F73928F90E020
:1012300008958FEF9FEF0895FC01538D448D252F66
:1012400030E0842F90E0821B930B541710F0CF9660
:101250000895019708958BE89AE0892B49F080E082
:1012600090E0892B29F00E948B0A81110C940000D8
:101270000895FC01848DDF01A80FB11DA35ABF4F53
:101280002C91848D90E001968F739927848FA68985
:10129000B7892C93A089B1898C91837080648C93D9
:1012A000938D848D981306C00288F389E02D808188
:1012B0008F7D80830895EF92FF920F931F93CF93BA
:1012C000DF93EC0181E0888F9B8D8C8D981305C096
:1012D000E889F989808185FD26C0F62E0B8D10E006
:1012E0000F5F1F4F0F731127E02E8C8DE8120CC07B
:1012F0000FB607FCFACFE889F989808185FFF5CF21
:10130000CE010E943909F1CF8B8DFE01E80FF11D4E
:10131000E35AFF4FF0829FB7F8940B8FEA89FB895D
:10132000808180620AC09FB7F894EE89FF8960834C
:10133000E889F98980818370806480839FBF81E020
:1013400090E0DF91CF911F910F91FF90EF90089562
:10135000CF93DF93EC01888D8823C9F0EA89FB895C
:10136000808185FD05C0A889B9898C9186FD0FC053
:101370000FB607FCF5CF808185FFF2CFA889B98928
:101380008C9185FFEDCFCE010E943909E7CFDF9127
:10139000CF910895CF92DF92EF92FF921F93CF9358
:1013A000DF93EC016A017B01122FE889F98982E061
:1013B00080834115514E61057105B1F060E079E01F
:1013C0008DE390E0A70196010E94A632DA01C901DF
:1013D0000197A109B109B695A795979587959C01A5
:1013E000211580E13807A8F0E889F989108260E8C2
:1013F00074E88EE190E0A70196010E94A632DA011E
:10140000C9010197A109B109B695A7959795879547
:101410009C01EC85FD853083EE85FF852083188E49
:10142000EC89FD891083EA89FB8980818061808352
:10143000EA89FB89808188608083EA89FB898081D1
:1014400080688083EA89FB8980818F7D8083DF913A
:10145000CF911F91FF90EF90DF90CF90089580E0A3
:1014600090E0089508951F920F920FB60F921124E5
:101470002F938F939F93EF93FF93E0911705F09134
:1014800018058081E0911D05F0911E0582FD12C0B6
:101490009081809120058F5F8F73209121058217A5
:1014A00051F0E0912005F0E0E95FFA4F958F8093CD
:1014B000200501C08081FF91EF919F918F912F9125
:1014C0000F900FBE0F901F9018951F920F920FB69E
:1014D0000F9211242F933F934F935F936F937F93BA
:1014E0008F939F93AF93BF93EF93FF9387E095E024
:1014F0000E943909FF91EF91BF91AF919F918F9118
:101500007F916F915F914F913F912F910F900FBEFF
:101510000F901F90189587E095E00E94EE0821E05B
:10152000892B09F420E0822F0895E7E0F5E013828B
:10153000128288EE93E0A0E0B0E084839583A683D6
:10154000B7838DEB92E09183808385EC90E0958763
:10155000848784EC90E09787868780EC90E0918B7D
:10156000808B81EC90E0938B828B82EC90E0958B6A
:10157000848B86EC90E0978B868B118E128E138E67
:10158000148E08958F929F92AF92BF92CF92DF9266
:10159000EF92FF920F931F93CF93DF937C018B0108
:1015A0004C0182E0880E911C5701E5E0AE0EB11CA3
:1015B000C0E0D0E0F40161914F014AE050E0C80181
:1015C0000E94340C6C016EE2C8010E949D0B8C0DD0
:1015D0009D1DC80FD91F8A149B0461F74AE050E093
:1015E000F7016581C8010E94340C8C0F9D1FDF91AB
:1015F000CF911F910F91FF90EF90DF90CF90BF9010
:10160000AF909F908F9008952FEC32E0FC013183D2
:101610002083128213821482158208950F93FC0195
:101620008FEC92E0918380836283438324830583DC
:101630000F91089508950E945E0E0E941A0B0E9459
:10164000A804CBE2D9E00E9408072097E1F30E94AA
:101650002B09F9CFCF92DF92EF92FF920F931F9356
:10166000CF93DF936C017A018B01C0E0D0E0CE15FF
:10167000DF0581F0D8016D918D01D601ED91FC91CE
:101680000190F081E02DC6010995892B11F021967A
:10169000EECF7E01C701DF91CF911F910F91FF9097
:1016A000EF90DF90CF9008956115710579F0FB01FF
:1016B00001900020E9F73197AF01461B570BDC0181
:1016C000ED91FC910280F381E02D099480E090E09F
:1016D0000895EF92FF920F931F93CF93DF938C01A6
:1016E0007B01C0E0D0E0F701EC0FFD1F64916623A1
:1016F00061F0D801ED91FC910190F081E02DC801DD
:101700000995892B11F02196EECFCE01DF91CF9173
:101710001F910F91FF90EF900895DB0114964D916A
:101720005C9115976D917C91DC01ED91FC910280AB
:10173000F381E02D09940C94540BDC01ED91FC91A4
:101740000190F081E02D09946CEA73E00C94540B45
:101750000F931F93CF93DF93EC010E94690B8C01D1
:10176000CE010E94A40B800F911FDF91CF911F919A
:101770000F9108950F931F93CF93DF93EC010E9475
:101780008D0B8C01CE010E94A40B800F911FDF9165
:10179000CF911F910F9108950F931F93CF93DF93D4
:1017A000EC010E94540B8C01CE010E94A40B800F0F
:1017B000911FDF91CF911F910F9108958F929F926A
:1017C000AF92BF92EF92FF920F931F93CF93DF934D
:1017D000CDB7DEB7A1970FB6F894DEBF0FBECDBF71
:1017E0007C01FA01CB0119A2223008F42AE08E0113
:1017F0000F5D1F4F822E912CA12CB12CBF01A50192
:1018000094010E94A632F901CA01015011096A30FF
:1018100010F4605D01C0695CD8016C93232B242B0C
:10182000252B61F7B801C7010E94540BA1960FB692
:10183000F894DEBF0FBECDBFDF91CF911F910F9106
:10184000FF90EF90BF90AF909F908F9008952115DB
:10185000310541F4DC01ED91FC910190F081E02D26
:10186000642F09940C94DE0B9A01462F50E060E03F
:1018700070E00C94270C0F931F93CF93DF93EC0130
:101880000E94340C8C01CE010E94A40B800F911F8A
:10189000DF91CF911F910F9108959A01AB0160E004
:1018A00070E00C94270C0F931F93CF93DF93EC0100
:1018B0000E94270C8C01CE010E94A40B800F911F67
:1018C000DF91CF911F910F910895CF92DF92EF9208
:1018D000FF920F931F93CF93DF932115310581F46E
:1018E000DC01ED91FC910190F081E02D642FDF91FE
:1018F000CF911F910F91FF90EF90DF90CF900994BF
:101900002A30310501F577FF1DC06A017B01EC012A
:101910006DE20E949D0B8C0144275527BA014C199A
:101920005D096E097F092AE0CE010E94DE0B800F5F
:10193000911FDF91CF911F910F91FF90EF90DF905A
:10194000CF9008952AE0DF91CF911F910F91FF90E2
:10195000EF90DF90CF900C94DE0B0F931F93CF93FB
:10196000DF93EC010E94650C8C01CE010E94A40B58
:10197000800F911FDF91CF911F910F9108957F925A
:101980008F929F92AF92BF92CF92DF92EF92FF928F
:101990000F931F93CF93DF938C016A017B01722E0B
:1019A0009A01AB01C701B6010E947D32882319F06C
:1019B00061ED72E027C046015701E894B7F82FEFB8
:1019C0003FEF4FE75FE7C501B4010E947D3281110F
:1019D0000DC02FEF3FEF4FE75FE7C501B4010E9455
:1019E000AE3118161CF465ED72E00CC02FEF3FEF1E
:1019F0004FE75FE4C701B6010E947832181694F4ED
:101A000069ED72E0C801DF91CF911F910F91FF90B6
:101A1000EF90DF90CF90BF90AF909F908F907F908E
:101A20000C94540B2FEF3FEF4FE75FECC701B6016B
:101A30000E94AE3187FDE4CF20E030E0A901C7016C
:101A4000B6010E94AE3187FF0AC06DE2C8010E9454
:101A50009D0BEC01F7FAF094F7F8F09402C0C0E0A7
:101A6000D0E0B12C60E070E080E09FE37B1441F0B7
:101A700020E030E040E251E40E94B331B394F6CF6D
:101A8000A70196010E9487076B017C010E94253205
:101A90004B015C012AE0AB01BC01C8010E94DE0BD6
:101AA000C80FD91F7720B9F1C501B4010E94F3070F
:101AB0009B01AC01C701B6010E9486076B017C0146
:101AC0006EE2C8010E949D0BC80FD91F20E030E0D4
:101AD00040E251E4C701B6010E9481084B015C015C
:101AE0000E9425326B017C014AE050E0C8010E944F
:101AF0004D0CC80FD91FB60180E090E00E94F3079B
:101B00009B01AC01C501B4010E9486076B017C01F9
:101B10007A947110DBCFCE01DF91CF911F910F919D
:101B2000FF90EF90DF90CF90BF90AF909F908F90FD
:101B30007F9008950C94BF0C1F920F920FB60F92D6
:101B400011242F933F938F939F93AF93BF938091D3
:101B5000A5059091A605A091A705B091A805309183
:101B6000A40523E0230F2D3720F40196A11DB11DFC
:101B700005C026E8230F0296A11DB11D2093A405E0
:101B80008093A5059093A605A093A705B093A805FB
:101B90008091A9059091AA05A091AB05B091AC05E3
:101BA0000196A11DB11D8093A9059093AA05A0934C
:101BB000AB05B093AC05BF91AF919F918F913F91D1
:101BC0002F910F900FBE0F901F9018952FB7F8947C
:101BD0006091A5057091A6058091A7059091A80533
:101BE0002FBF08953FB7F8948091A9059091AA0559
:101BF000A091AB05B091AC0526B5A89B05C02F3FC1
:101C000019F00196A11DB11D3FBFBA2FA92F982F22
:101C10008827820F911DA11DB11DBC01CD0142E09D
:101C2000660F771F881F991F4A95D1F708958F92E5
:101C30009F92AF92BF92CF92DF92EF92FF926B0191
:101C40007C010E94F20D4B015C01C114D104E1043E
:101C5000F10401F10E943D260E94F20DDC01CB014E
:101C600088199909AA09BB09883E9340A105B105C5
:101C700060F321E0C21AD108E108F10888EE880E6D
:101C800083E0981EA11CB11CC114D104E104F1042D
:101C900019F7DBCFFF90EF90DF90CF90BF90AF9020
:101CA0009F908F9008958230910538F0880F991F8A
:101CB000880F991F05970197F1F70895789484B5D7
:101CC000826084BD84B5816084BD85B5826085BD38
:101CD00085B5816085BDEEE6F0E08081816080831E
:101CE000E1E8F0E010828081826080838081816001
:101CF0008083E0E8F0E0808181608083E1EBF0E0C8
:101D0000808184608083E0EBF0E08081816080836B
:101D1000EAE7F0E080818460808380818260808354
:101D20008081816080838081806880831092C1007F
:101D300008958E3008F08E502091AA0190E4299FDA
:101D4000900111248770822B80937C0080917A000F
:101D5000806480937A0080917A0086FDFCCF809128
:101D600078002091790090E0922B0895833081F0E3
:101D700028F4813099F08230A1F008958730A9F0DD
:101D80008830B9F08430D1F4809180008F7D03C019
:101D9000809180008F7780938000089584B58F773D
:101DA00002C084B58F7D84BD08958091B0008F7787
:101DB00003C08091B0008F7D8093B0000895CF93D1
:101DC000DF9390E0FC01EA5CFB4F2491FC01E55BB2
:101DD000FB4F8491882361F190E0880F991FFC01EB
:101DE000EC58FB4FC591D491FC01E659FB4FA591EE
:101DF000B491611109C09FB7F8948881209582231E
:101E00008883EC912E230BC0623061F49FB7F89465
:101E10008881322F309583238883EC912E2B2C934D
:101E20009FBF06C08FB7F894E8812E2B28838FBF01
:101E3000DF91CF9108951F93CF93DF93282F30E048
:101E4000F901EF5DFB4F8491F901EA5CFB4FD491FE
:101E5000F901E55BFB4FC491CC23C1F0162F811132
:101E60000E94B60EEC2FF0E0EE0FFF1FE659FB4F7D
:101E7000A591B4919FB7F894111104C08C91D0959D
:101E8000D82302C0EC91DE2BDC939FBFDF91CF9172
:101E90001F910895CF93DF93282F30E0F901EF5D74
:101EA000FB4F8491F901EA5CFB4FD491F901E55BAA
:101EB000FB4FC491CC2391F081110E94B60EEC2F00
:101EC000F0E0EE0FFF1FE05AFB4FA591B491EC91AB
:101ED000ED2381E090E021F480E002C080E090E01A
:101EE000DF91CF910895FC01808191810C94193488
:101EF000CF93DF93EC0188819981009711F00E94C4
:101F00001934198218821D821C821B821A82DF9169
:101F1000CF9108950F931F93CF93DF93EC018B0123
:101F20006F5F7F4F888199810E94A234009731F0C2
:101F3000998388831B830A8381E001C080E0DF915D
:101F4000CF911F910F910895CF93DF93EC0188817A
:101F50009981892B29F08A819B818617970760F4E4
:101F6000CE010E948A0F882341F08C819D81892BAC
:101F700019F4E881F981108281E0DF91CF91089511
:101F8000EF92FF920F931F93CF93DF93EC017B01AE
:101F90008A01BA010E94A40F811104C0CE010E94DF
:101FA000780F07C01D830C83B701888199810E9437
:101FB000BD35CE01DF91CF911F910F91FF90EF9032
:101FC0000895FC01118210821382128215821482FC
:101FD0006115710551F0FB0101900020E9F731977F
:101FE000AF01461B570B0C94C00F0895CF93DF939E
:101FF000EC016115710559F0FB0101900020E9F732
:102000003197AF01461B570B0E94C00F02C00E94C0
:10201000780FCE01DF91CF9108950F931F93CF9347
:10202000DF93CDB7DEB762970FB6F894DEBF0FBE71
:10203000CDBF8C01CB01F801118210821382128274
:102040001582148250E0BE016F5F7F4F0E94D3352E
:10205000BE016F5F7F4FC8010E94F60F62960FB6F8
:10206000F894DEBF0FBECDBFDF91CF911F910F91CE
:102070000895EF92FF920F931F93CF93DF93611513
:10208000710511F480E01CC041155105C1F07B01C0
:10209000EC018C819D818A01080F191FB801CE01C6
:1020A0000E94A40F882371F3288139818C819D813E
:1020B000B701820F931F0E94BD351D830C8381E001
:1020C000DF91CF911F910F91FF90EF9008956115CF
:1020D000710551F0FB0101900020E9F73197AF0144
:1020E000461B570B0C94391080E00895EF92FF9235
:1020F0000F931F93CF93DF93CDB7DEB72D970FB616
:10210000F894DEBF0FBECDBF7C01CB01BA012AE03F
:102110008E010F5F1F4FA8010E94F135F801019059
:102120000020E9F73197AF01401B510BB801C701FF
:102130000E9439102D960FB6F894DEBF0FBECDBFAA
:10214000DF91CF911F910F91FF90EF900895EF9243
:10215000FF920F931F93CF93DF93CDB7DEB76497B2
:102160000FB6F894DEBF0FBECDBF7C01CB01BA0124
:102170008E010F5F1F4F22E044E00E946133FC019B
:1021800001900020E9F73197AF01481B590BBC01C2
:10219000C7010E94391064960FB6F894DEBF0FBED7
:1021A000CDBFDF91CF911F910F91FF90EF900895D8
:1021B0002091F905222399F04FB7F8942091F90561
:1021C000213059F42DB32093F7053DB32091F80544
:1021D000209523232DBB4FBF02C04093F7058CBD34
:1021E0009DBD08958091F905882361F09FB7F8940B
:1021F0002091F9058091F705213019F48DBB9FBF1F
:1022000008958FBF0895FC018FEF838784878587AA
:1022100086870895CF92DF92EF92FF920F931F93DC
:10222000CF93DF93FC0126852F3F39F46EBD00006C
:102230000DB407FEFDCF8EB52BC0D62F8C0187E0E5
:10224000E82EF12CC0E0CC24C394D12CCC0F60E05C
:10225000F80186850E941B0FB6010E2C01C0660F87
:102260000A94EAF76D23F80184850E941B0F61E050
:10227000F80186850E941B0FF80185850E944A0F90
:10228000892B09F0C160F1E0EF1AF108F8F68C2F04
:10229000DF91CF911F910F91FF90EF90DF90CF9042
:1022A00008950F931F93CF93DF93EC01162F042F04
:1022B0008B858F3F09F56A81888199810E94372536
:1022C00088819981DC01ED91FC910190F081E02DF4
:1022D000612F099588819981DC01ED91FC91019034
:1022E000F081E02D602F099588819981DF91CF9150
:1022F0001F910F910C94BB258E858F3F21F482E5B1
:1023000091E00E94D81060E08B850E941B0F612F26
:102310006F77CE010E940A11602FCE010E940A1130
:1023200061E08B850E941B0F8E858F3F31F4DF911A
:10233000CF911F910F910C94F210DF91CF911F91CB
:102340000F910895CF92EF920F93CF93DF93EC010B
:102350006295660F660F607C47702770822F880F2A
:10236000880F880F262F242B282B29AB902F92958E
:10237000990F907E8AA98F71892B8AAB8E2D8770D9
:10238000880F880F880F98A9292F207C9C2D977083
:10239000E22EE82AE92AE8AA402F477062EFCE0130
:1023A0000E94511198A9492F477060E2469F900101
:1023B0001124892F869586958695877064E0869F7F
:1023C000A0011124422B532B97FB992790F9492BFD
:1023D00065EFCE010E94511199A9492F477080E203
:1023E000489F90011124892F869586958695877040
:1023F00064E0869FA0011124422B532B9295969561
:1024000096959370492B64EFCE01DF91CF910F9198
:10241000EF90CF900C9451111F93CF93DF93EC0169
:10242000162F8B858F3F21F56A81888199810E94C3
:10243000372588819981DC01ED91FC910190F08133
:10244000E02D612F0995888199810E94BB2541E08B
:102450006A81888199810E94B82588819981DC01EF
:10246000ED91FC910284F385E02D0995182F1EC093
:102470008E858F3F21F482E591E00E94D81060E0C4
:102480008B850E941B0F612F6068CE010E940A118C
:1024900060E0CE010E940A11182F61E08B850E9436
:1024A0001B0F8E858F3F11F40E94F210812FDF9158
:1024B000CF911F9108950F931F93CF93DF93EC015A
:1024C000162F8B858F3F99F56A81888199810E94AB
:1024D000372588819981DC01ED91FC910190F08193
:1024E000E02D612F0995888199810E94BB2542E0EA
:1024F0006A81888199810E94B82588819981DC014F
:10250000ED91FC910284F385E02D0995182F8881C7
:102510009981DC01ED91FC910284F385E02D099510
:1025200020E030E0312F8901082B192B28C08E853F
:102530008F3F21F482E591E00E94D81060E08B8506
:102540000E941B0F612F6068CE010E940A1160E09B
:10255000CE010E940A11082F60E0CE010E940A11EC
:10256000202F30E0322F22278901082B61E08B8554
:102570000E941B0F8E858F3F11F40E94F210C8013C
:10258000DF91CF911F910F9108950E945B129827C0
:102590008927982708954F925F926F927F928F922A
:1025A0009F92AF92BF92CF92DF92EF92FF921F93D2
:1025B000CF93DF93EC01162F8B858F3F09F051C02D
:1025C0006A81888199810E94372588819981DC01FF
:1025D000ED91FC910190F081E02D612F09958881AA
:1025E00099810E94BB2543E06A81888199810E947C
:1025F000B82588819981DC01ED91FC910284F385F5
:10260000E02D09952C01990F66087708762C652C2A
:10261000542C442488819981DC01ED91FC91028441
:10262000F385E02D09956C01990FEE08FF08C42889
:10263000D528E628F72888249C2CAD2CBE2C888130
:102640009981DC01ED91FC910284F385E02D0995DF
:102650006C01990FEE08FF08C828D928EA28FB2842
:1026600033C08E858F3F21F482E591E00E94D8101F
:1026700060E08B850E941B0F612F6068CE010E9475
:102680000A1160E0CE010E940A11C82ED12CE12C63
:10269000F12CFE2CED2CDC2CCC2460E0CE010E9431
:1026A0000A11C82AFE2CED2CDC2CCC2460E0CE01D3
:1026B0000E940A11C82A61E08B850E941B0F8E853B
:1026C0008F3F11F40E94F210C701B601DF91CF9144
:1026D0001F91FF90EF90DF90CF90BF90AF909F90B1
:1026E0008F907F906F905F904F9008951F93CF933E
:1026F000DF93EC0168E80E94C512988B8F876AE827
:10270000CE010E94C5129A8B898B6CE8CE010E9483
:10271000C5129C8B8B8B6EE8CE010E94C5129E8BDE
:102720008D8B60E9CE010E94C512988F8F8B62E974
:10273000CE010E94C5129A8F898F64E9CE010E9452
:10274000C5129C8F8B8F66E9CE010E94C5129E8FA9
:102750008D8F68E9CE010E94C51298A38F8F6AE918
:10276000CE010E94C5129AA389A36CE9CE010E94F2
:10277000C5129CA38BA36EE9CE010E94C5129EA335
:102780008DA361EACE010E940C128FA361EECE01EF
:102790000E94C51299A788A763EECE010E940C1271
:1027A0008AA764EECE010E940C12182F65EECE01AE
:1027B0000E940C1290E1199F900111248F70282B18
:1027C0003CA72BA766EECE010E940C12182F65EED7
:1027D000CE010E940C1290E1199F9001112490E00B
:1027E00044E0959587954A95E1F7822B932B9EA718
:1027F0008DA767EECE010E940C128FA7DF91CF91BB
:102800001F91089563EF0E940C1281700895CF927A
:10281000EF920F93CF93DF93EC018B858F3F29F4D9
:10282000888199810E94252518C061E00E941B0FB4
:1028300061E08B850E94DF0E8E858F3F19F40E9428
:10284000BA210BC061E00E94DF0E61E08C850E941E
:10285000DF0E60E08D850E94DF0E60EDCE010E94EC
:102860000C12803649F546EB60EECE010E94511104
:102870006CE271E080E090E00E94170ECE010E94B1
:102880000214882329F064E670E080E090E0F4CF41
:10289000CE010E947613C12CE12C05E025E045E035
:1028A00063E0CE010E94A21164E670E080E090E057
:1028B0000E94170E81E001C080E0DF91CF910F915F
:1028C000EF90CF90089527E7FC01228329E036E0BE
:1028D000318320830C9407148F929F92AF92BF9202
:1028E000CF92DF92EF92FF920F931F93CF93DF93DC
:1028F000EC016AEF0E94CB126115710520E8820796
:10290000910509F46FC00F85188920E030E0C72ECB
:10291000D82EE92EFF24E7FCFA94C01AD10AE20A65
:10292000F30ADC01CB0157E0B595A79597958795FC
:102930005A95D1F7000F111F221F331F4C015D0163
:10294000801A910AA20AB30AA5019401A989BA8939
:102950000E94F9324B015C017BE0B594A7949794F7
:1029600087947A95D1F7A7019601C701B6010E9415
:1029700082329B01AC01ECE0559547953795279540
:10298000EA95D1F7AB89BC890E94F932DC01CB0111
:10299000FEE0B595A79597958795FA95D1F7A5018E
:1029A0009401280F391F4A1F5B1F2F8338874987DF
:1029B0005A87A5E0B0E00E94EE32DC01CB018058DE
:1029C0009F4FAF4FBF4F692F7A2F8B2F992787FDCE
:1029D0009A950E94F50720E030E048EC52E40E940E
:1029E000B33104C060E070E080EC9FE7DF91CF91ED
:1029F0001F910F91FF90EF90DF90CF90BF90AF901D
:102A00009F908F9008954F925F926F927F928F92D6
:102A10009F92AF92BF92CF92DF92EF92FF92CF93AD
:102A2000DF93EC010E946C146DEFCE010E945B12EB
:102A3000A0E0B0E0811520E89207A105B10509F4F6
:102A4000CDC08F809884A984BA843CE2931A31E087
:102A5000A30AB1083EE0880F991FAA1FBB1F3A9531
:102A6000D1F74BA55CA5052E000C660B770BE4E1B6
:102A7000440F551F661F771FEA95D1F76C017D0142
:102A8000C41AD50AE60AF70AADA5BEA5A5019401A8
:102A90000E94F932C61AD70AE80AF90A40E4D40EAD
:102AA000E11CF11CFFE0F594E794D794C794FA95E4
:102AB000D1F7AAA5B0E0A50194010E94EE322B0146
:102AC0003C01ABE07594679457944794AA95D1F76D
:102AD00050E8550E611C711CAFA50A2E000CBB0BF3
:102AE000A50194010E94F932BAE0959587957795F2
:102AF0006795BA95D1F7A30192010E948232DC0159
:102B0000CB012AE0B595A795979587952A95D1F79A
:102B10009C01AD01405E5F4FA8A5B9A50E94F932A6
:102B2000DC01CB01905EAF4FBF4FBC01CD013EE059
:102B300095958795779567953A95D1F7A701960171
:102B40000E9482326B017C014FE0959587957795C5
:102B500067954A95D1F79B01AC010E9482329B0197
:102B6000AC0167E055954795379527956A95D1F75C
:102B7000AFA1B0E00E94EE32DC01CB0174E0B5956C
:102B8000A795979587957A95D1F7A7019601281B68
:102B9000390B4A0B5B0BDA01C90157FF03C080E018
:102BA00090E0DC0181309105A10539E1B30724F003
:102BB00080E090E0A0E0B9E1BC01CD012CE095956A
:102BC0008795779567952A95D1F70E94F50720E0BC
:102BD00030E040E85AE30E94810804C060E070E001
:102BE00080EC9FE7DF91CF91FF90EF90DF90CF9047
:102BF000BF90AF909F908F907F906F905F904F901D
:102C00000895FC011382128285EE92E09183808305
:102C10006115710529F489E096E09683858308950E
:102C2000768365830895FC01858196810C94252522
:102C30002F923F924F925F926F927F928F929F92CC
:102C4000AF92BF92CF92DF92EF92FF920F931F93BA
:102C5000CF93DF93EC01162F742E2901612C802E67
:102C6000912C601608F05FC06401C618D10881E29B
:102C7000C816D1041CF080E2C82ED12CBC2C6C816B
:102C80008D819E810E9437258D819E81DC01ED9191
:102C9000FC910190F081E02D612F09958D819E813D
:102CA000DC01ED91FC910190F081E02D672D0995FB
:102CB0008F818F3F59F48D819E810E94BB25C70172
:102CC0000E94530E8F818F3F39F40BC08F810E9479
:102CD0004A0F892BD9F3EFCF8F810E944A0F892B9E
:102CE000D9F34B2D6C818D819E810E94B825A12C3A
:102CF000B12CDD2411C01201280E311C8D819E8162
:102D0000DC01ED91FC910284F385E02D0995F10140
:102D10008083FFEFAF1ABF0A862D8A0DAC14BD0465
:102D200054F3682E9ECFDF91CF911F910F91FF90AA
:102D3000EF90DF90CF90BF90AF909F908F907F905B
:102D40006F905F904F903F902F900895EF92FF9279
:102D50000F93CF93DF9300D000D0CDB7DEB72DE730
:102D6000E22EF12C04E09E012F5F3F4F42E060E035
:102D70000E94181669817A818B819C810E94E732BA
:102D80000F900F900F900F90DF91CF910F91FF90C8
:102D9000EF900895EF92FF920F931F93CF93DF93DD
:102DA00000D0CDB7DEB7633069F020F4623021F592
:102DB00040E009C0643021F06530F1F443E003C025
:102DC00042E001C041E0495F24EFE22EFF24F3948A
:102DD00002E09E012F5F3F4F69E00E9418160981B3
:102DE0001A8110270127102761E070E080E090E051
:102DF0000E94170EC80102C080E090E00F900F9073
:102E0000DF91CF911F910F91FF90EF900895EF9276
:102E1000FF920F931F93CF93DF9300D0CDB7DEB710
:102E200040E1460F28EEE22E23E0F22E02E09E0162
:102E30002F5F3F4F6FE00E94181609811A811027FB
:102E40000127102761E070E080E090E00E94170EFB
:102E5000C8010F900F90DF91CF911F910F91FF90BC
:102E6000EF900895EF92FF920F93CF93DF931F920D
:102E7000CDB7DEB7790101E09E012F5F3F4F0E9481
:102E8000181689810F90DF91CF910F91FF90EF90ED
:102E90000895DF92EF92FF920F931F93CF93DF93EA
:102EA000EC01D62E142F79016C818D819E810E94B8
:102EB00037258D819E81DC01ED91FC910190F0819F
:102EC000E02D6D2D09958D819E81DC01ED91FC91A8
:102ED0000190F081E02D612F09958D819E81402F19
:102EE00050E0DC01ED91FC910280F381E02DB7010F
:102EF00009958F818F3F59F48D819E81DF91CF910C
:102F00001F910F91FF90EF90DF900C94BB258F8164
:102F10000E944A0F892BD9F3EFCF7F928F929F9215
:102F2000AF92BF92CF92DF92EF92FF920F931F93D7
:102F3000CF93DF9300D01F92CDB7DEB7ECEFE60F53
:102F4000E430C8F5F0E0E352FD4F708077FC33C009
:102F5000BA014C01203161F479827A834B8303E01A
:102F60009E012F5F3F4F41E068E00E94491723C058
:102F700080E090E01F921F922FEF2F932F93A12CB0
:102F8000B12C6501E12CF12C8701EA9420E030E0BE
:102F9000A9010E943E2679827A836B8303E09E0119
:102FA0002F5F3F4F41E068E0C4010E9449170F9036
:102FB0000F900F900F900F900F900F90DF91CF9187
:102FC0001F910F91FF90EF90DF90CF90BF90AF9047
:102FD0009F908F907F9008950F93CF93DF9300D0B1
:102FE0001F92CDB7DEB76450643090F4E62FF0E066
:102FF000E352FD4F208127FD0BC029835A834B8369
:1030000003E09E012F5F3F4F42E068E00E944917B6
:103010000F900F900F90DF91CF910F9108950F9324
:10302000CF93DF931F92CDB7DEB7298301E09E01D6
:103030002F5F3F4F0E9449170F90DF91CF910F9163
:1030400008952FEF4FE760E00C940F181F93CF9374
:10305000DF93EC01842F122F6C834F834F3F19F0C5
:1030600060E00E94DF0ECE010E941316112349F08A
:10307000CE010E94211864EF71E080E090E00E9490
:10308000170E2DE730E041E060E0CE010E943217DC
:1030900091E0853509F090E0892FDF91CF911F9164
:1030A0000895262F45E062E00E940F1861E070E06D
:1030B00080E090E00E94170E81E090E00895CF92AA
:1030C000DF92EF92FF920F93CF93DF93CDB7DEB7EE
:1030D000A0970FB6F894DEBF0FBECDBF6C01862F50
:1030E000FB010E2F081B9191E02EF12C992341F04A
:1030F000A1E0B0E0AC0FBD1FAE0DBF1D9C93F1CFA2
:103100009E012F5F3F4F45E062E0C6010E944917D4
:10311000C701A0960FB6F894DEBF0FBECDBFDF91FA
:10312000CF910F91FF90EF90DF90CF9008951F9374
:10313000CF93DF93EC01162F0E94E60DFE01E857B6
:10314000FF4F60837183828393838C819D81DC0137
:10315000ED91FC910190F081E02D612FDF91CF91F5
:103160001F910994EF92FF920F931F93CF93DF93D8
:10317000EC018B017A010E94E60DFE01E857FF4F3A
:1031800060837183828393838C819D81DC01ED91C7
:10319000FC910280F381E02DA701B801DF91CF916E
:1031A0001F910F91FF90EF900994AF92BF92CF9231
:1031B000DF92EF92FF920F931F93CF93DF93EC0177
:1031C0005B016A0179011B821A8289EF92E099837F
:1031D0008883CE018D569F4F0E94040BFE01E1565D
:1031E000FF4F8FEF9FEF918380833697B182A0824C
:1031F0003296D182C0823A97F182E0821D830C839D
:10320000C356DF4F19821882DF91CF911F910F9122
:10321000FF90EF90DF90CF90BF90AF900895CF9246
:10322000DF92EF92FF920F931F93CF93DF93EC0106
:103230008B010E94E60D6B017C018C819D81DC017C
:10324000ED91FC910084F185E02D0995892B89F49D
:103250000E943D260E94E60DDC01CB018C199D09E0
:10326000AE09BF0988399A43A105B10530F380E062
:103270000CC08C819D81DC01ED91FC910284F38571
:10328000E02D0995F801808381E0DF91CF911F91B6
:103290000F91FF90EF90DF90CF9008950F931F93C1
:1032A000CF93DF938A01FA01C081D1816C0F7D1F1A
:1032B0000E940F19882321F02196F801D183C08341
:1032C000DF91CF911F910F9108954F925F926F926E
:1032D0007F928F929F92AF92BF92CF92DF92EF92A6
:1032E000FF920F931F93CF93DF9300D000D0CDB701
:1032F000DEB78C014B011A8219827C0126E0E20EB6
:10330000F11CAE014F5F5F4FB7010E944E19882339
:10331000F9F0D8011696DC901B82A12CB12C412C1F
:10332000512C3201439489819A810597A1F4F801C7
:10333000E156FF4F8FEF9FEF91838083F8018481E7
:103340009581DC01ED91FC910488F589E02D0995CA
:1033500080E090E0AAC0BE016D5F7F4FC8010E946F
:103360000F198823A9F329813A81C90101969A830B
:1033700089834B81F801E20FF31F4683242F2F77B7
:1033800030E0249DB001259D700D349D700D1124F9
:10339000A60EB71E97E0440C551C661C771C9A9528
:1033A000D1F747FDC0CFBD2DB07FBC838150F40164
:1033B0008083B03339F5AE014F5F5F4FB701C8016D
:1033C0000E944E19882321F2AE014F5F5F4FB70173
:1033D000C8010E944E19882309F4BACFD4018C91F8
:1033E000F801E80FF11DE780F12CFE2CEE2480851A
:1033F000E80EF11CF801868181FF08C0F2E0EF0EB3
:10340000F11C04C080E0E12CF12C01C082E0C82E48
:10341000D12C38012DE9620E711CCA14DB04A8F509
:10342000BE016D5F7F4FC8010E940F19882309F408
:103430008FCFD3018D919C910097B1F0BC81B033B7
:1034400099F429813A8122503109F4014081241BE9
:103450003109E216F30640F4DC01ED91FC91019094
:10346000F081E02D6B81099589819A8180389105E1
:1034700028F42B81F801E80FF91F268301969A831F
:103480008983BFEFCB1ADB0AC8CFF801E356FF4FA1
:1034900080819181892B39F489819A8181389105C4
:1034A00010F01A82198289819A810F900F900F90E3
:1034B0000F90DF91CF911F910F91FF90EF90DF90D0
:1034C000CF90BF90AF909F908F907F906F905F90C4
:1034D0004F900895CF93DF9300D000D0CDB7DEB7E3
:1034E00080E0922F9F77220F232F221F330B3195DD
:1034F0002115310509F09068E1E0F0E0EC0FFD1FC7
:10350000E80FF11D90838F5F2115310551F790E091
:10351000FA01E81BF90B6483DE011196FA01E81B3E
:10352000F90B35964B5F5F4FE417F50719F02D91B6
:103530002193FACF01960F900F900F900F90DF918B
:10354000CF910895EF92FF920F931F93CF93DF9344
:103550007C01EA0189010E946A1A9C01D701149634
:103560008D919C9115973327020F131FBE01621B8B
:10357000730B6B5F7F4FDC01ED91FC910280F38157
:10358000E02DA8010995EC010E94E60DF701E8572E
:10359000FF4F608371838283938381E00C171D0743
:1035A00009F080E0DF91CF911F910F91FF90EF9094
:1035B0000895CF93DF93F9013296E40FF51FEB01E5
:1035C000DE01A61BB70BCF01841B950B299122238B
:1035D00011F02193F5CF9C012A1B3B0B420F531F87
:1035E000FA013297B0833196A083DF91CF9108958D
:1035F0001F93CF93DF93FC01A481B581109759F1FC
:10360000EC01ED91FC9111970688F789E02DCD0131
:10361000099511E0811120C010E0FE01E156FF4F35
:1036200080819181892BC1F48DEF9FEF91838083FD
:103630008C819D81DC01ED91FC910680F781E02D6C
:1036400009958C819D81DC01ED91FC910488F589BF
:10365000E02D099501C010E0812FDF91CF911F91DE
:1036600008952F923F924F925F926F927F928F9226
:103670009F92AF92BF92CF92DF92EF92FF920F9301
:103680001F93CF93DF93CDB7DEB72E970FB6F89485
:10369000DEBF0FBECDBF3C017A8769871A012901C1
:1036A0000E94F81AD82E811174C1F301E756FF4F1A
:1036B00060817181D30114968D919C911597A556C7
:1036C000BF4F6115710549F04D915C91DC01ED91A1
:1036D000FC910088F189E02D22C0FC01208131811C
:1036E000F9010684F785E02DFE87ED87ED91FC91C9
:1036F0002FEC32E03A832983D301AD56BF4F1296A7
:103700004D915D916D917C9115974B835C836D8399
:103710007E83AF01BE016F5F7F4FED85FE8509950A
:10372000F3018130910509F02EC1EA57FF4F9183D3
:10373000808387E0EDEBF1E0DE01119601900D92C0
:103740008A95E1F7FE013196D3011B96C30142969B
:1037500021912D93A817B907D9F70115110559F033
:10376000F0E2CF9EC0011124846028E0E29E700147
:1037700011248E2901C080E081108260211431045F
:1037800031F04114510411F4806801C0806CD30100
:1037900052968C93529753961C9253978FE054965F
:1037A0008C935497E985FA8501900020E9F7CF01C1
:1037B00029853A85821B930B40968138910508F044
:1037C000ACC07301B6E0EB0EF11C2FE030E0A701B6
:1037D00069857A85C3010E94D91A0115110551F135
:1037E000F80101900020E9F73197E01BF10B9C01F3
:1037F0002E5F3F4FE20FF31FE138F10508F0B8C02C
:103800009C01A701B801C3010E94D91AF5010190DA
:103810000020E9F73197EA19FB09E80FF91F329602
:10382000E138F10508F0A4C09C01A701B501C3016E
:103830000E94D91A2114310479F1F101019000207C
:10384000E9F73197E219F3099C012E5F3F4FE20F30
:10385000F31FE138F10508F08BC09C01A701B1010D
:10386000C3010E94D91A41145104B1F0F201019030
:103870000020E9F73197E419F5099C012E5F3F4FCD
:10388000E20FF31FE138F10508F072C09C01A701B7
:10389000B201C3010E94D91A9C0125503109A70128
:1038A00060E1C3010E94A21A0E94E60DF301E857ED
:1038B000FF4F6083718382839383830104571F4F7B
:1038C000F8016083718382839383D30114968D9171
:1038D0009C911597DC01ED91FC910084F185E02D20
:1038E0000995892BF9F40E94E60DF80180809180FA
:1038F000A280B380DC01CB0188199909AA09BB0910
:1039000088399A43A105B10500F3F301E156FF4F51
:103910008CEF9FEF91838083D30114968D919C91BE
:10392000159729C0BE01685F7F4FC3010E946519CA
:103930000497F1F4F3018185930121563F4F7901FA
:10394000811112C00E94E60DD8016D937D938D9375
:103950009C931397F301E057FF4F1082F7011182F8
:103960001082DD24D39415C090E0D9018D939C93EF
:10397000F30184819581DC01ED91FC910488F58946
:10398000E02D099506C0E156FF4F8EEF9FEF918322
:1039900080838D2D2E960FB6F894DEBF0FBECDBF5F
:1039A000DF91CF911F910F91FF90EF90DF90CF901B
:1039B000BF90AF909F908F907F906F905F904F904F
:1039C0003F902F9008958F92AF92BF92CF92EF9237
:1039D0000F931F9388248394A12CB12CC12CE12C2C
:1039E00000E010E00E94311B1F910F91EF90CF90EB
:1039F000BF90AF908F9008952F923F924F925F9219
:103A00006F927F928F929F92AF92BF92CF92DF92EE
:103A1000EF92FF920F931F93CF93DF93CDB7DEB753
:103A200027970FB6F894DEBF0FBECDBF8C010E9462
:103A3000F81A8C83882309F442C10E94E60D2B01F9
:103A40003C0178012CE8E20EF11CF70180819181A4
:103A5000A281B381A3019201281B390B4A0B5B0B96
:103A6000DA01C90189399A43A105B10590F4349767
:103A700080819181A281B381A3019201281B390B1E
:103A80004A0B5B0BDA01C90189399A43A105B105DB
:103A9000C0F1680140E9C40ED11CD6012C91F80197
:103AA00084819581222371F0E156FF4F2CEF3FEF87
:103AB00031832083DC01ED91FC910488F589E02DB0
:103AC0000995FCC020ECF80126831782DC01ED91FA
:103AD000FC910280F381E02D42E050E0B8016A5F82
:103AE0007F4F0995F801E857FF4F4082518262826B
:103AF0007382F701408251826282738281E0D60133
:103B00008C93F80184819581DC01ED91FC91008416
:103B1000F185E02D0995892B09F4D1C0BE016F5FB5
:103B20007F4FC8010E9465191C01892B09F4C1C08F
:103B3000F7014082518262827382D80116968C917D
:103B4000807F803309F093C0F801EF56FF4FFB836D
:103B5000EA8380819181892B09F4B1C0C980D12C7D
:103B6000F801EC0DFD1DE780F12CFE2CEE24808584
:103B7000E80EF11C4801F6E08F0E911C560122E080
:103B8000A20EB11CA80CB91CB6016D5F7F4F680D69
:103B9000791DA701C5010E94A435B7016C0D7D1DDB
:103BA000D801A60FB71F18961C921897F8018681A6
:103BB00086708D83EA81FB810190F081E02DFF8387
:103BC000EE83823009F042C019968C91199790E0EB
:103BD000982F88271A962C91AC01420F511D5B83B8
:103BE0004A834BEF5FEF4C195D094E195F09420D97
:103BF000531D6B5F7F4F680D791DC501099580E4EA
:103C0000D80116968C931697ED811796EC9317971B
:103C1000FB811896FC9318972A8119962C93199773
:103C200014968D919C911597DC01ED91FC91028089
:103C3000F381E02D44E050E0B4010995F801E85724
:103C4000FF4F408251826282738239C04DEF5FEF35
:103C50004C195D094E195F09420D531D6D5F7F4F71
:103C6000680D791DC501EE81FF81099528C0803C52
:103C7000C9F480EDD80116968C93169717961C926E
:103C8000179714968D919C911597B8016A5F7F4F95
:103C9000DC01ED91FC910280F381E02D42E050E0E7
:103CA00009950DC0803D59F4F801E057FF4F10828F
:103CB00006C0C8010E94F81A811101C01C828C81C3
:103CC00027960FB6F894DEBF0FBECDBFDF91CF9120
:103CD0001F910F91FF90EF90DF90CF90BF90AF902A
:103CE0009F908F907F906F905F904F903F902F901C
:103CF00008959F92AF92BF92CF92DF92EF92FF9280
:103D00000F931F93CF93DF937C016B01942E152F9C
:103D1000E9010E94F81A882309F440C0F6010190D5
:103D20000020E9F73197EC19FD09CE010796E80F5D
:103D3000F91FE138F10590F5570186E0A80EB11C96
:103D400025E030E0A501B601C7010E94D91AE92D8E
:103D5000F12FDC011696AE0DBF1DAF014C0F5D1F9C
:103D6000E417F50719F021912D93FACF2597002339
:103D700011F061E301C060E39C012C0F3D1FA50120
:103D8000C701DF91CF911F910F91FF90EF90DF90CE
:103D9000CF90BF90AF909F900C94A21A80E0DF91DB
:103DA000CF911F910F91FF90EF90DF90CF90BF9038
:103DB000AF909F9008950F93FA0101900020E9F7CA
:103DC00031979F01241B350B00E00E94791E0F9153
:103DD0000895DF92EF92FF920F931F93CF93DF939B
:103DE000423008F040C0FB0101900020E9F79F013C
:103DF000261B370B285F3F4F21383105A0F5D42E05
:103E00008B01EC010E94F81A882369F1FE01EA5740
:103E1000FF4F80819181019611F481E090E09183C0
:103E20008083808191819B878C877E0186E0E80E6C
:103E3000F11C27E030E0A701B801CE010E94D91A99
:103E4000FE01E80FF91FD6829C0124503109A70119
:103E500062E8CE01DF91CF911F910F91FF90EF901B
:103E6000DF900C94A21A80E0DF91CF911F910F9107
:103E7000FF90EF90DF90089581569F4FFC01808165
:103E8000918108950F9300E020E040E060E08DEA2A
:103E900095E00E940E0B0F9108952091F505309149
:103EA000F60528173907B9F49091B3058091B40548
:103EB000981789F0E091B305F0E0EB54FA4F808158
:103EC0002091B30530E02F5F3F4F2F7333272093AE
:103ED000B30590E008958FEF9FEF08951F93CF9360
:103EE000DF93DC015C968D919C915D97009739F48E
:103EF00021E030E013963C932E9312973BC05196ED
:103F0000ED91FC91529750962C915097322F30950D
:103F10001FB75E964C915E97742F727041FD60954D
:103F2000F8944081772311F0422B01C04323408352
:103F3000EC012197F1F748E0508160FF02C0522B5D
:103F400001C053235083EC012197F1F7669541504E
:103F500099F78081772319F08323808302C0282B6F
:103F600020831FBF5C968D919C915D970197F1F71F
:103F700081E090E0DF91CF911F9108950895209105
:103F8000F5053091F6052817390771F49091B305BE
:103F90008091B405981741F0E091B305F0E0EB543F
:103FA000FA4F808190E008958FEF9FEF0895209160
:103FB000F5053091F6052817390771F48091B4059D
:103FC0002091B30590E0805C9F4F821B910960E4D3
:103FD00070E00E949232089580E090E00895E091B0
:103FE000F505F091F605E817F90769F4A389B48996
:103FF0009C918589809589238C931092F605109267
:10400000F50581E0089580E00895CF93DF93EC01FA
:104010008A8D9B8D892BF1F08091F5059091F605A5
:10402000C817D907B9F0009711F00E94EF1F8E8DC5
:104030008E7F8E8F1092B4051092B305D093F60543
:10404000C093F505EB89FC8990818D89892B80834C
:1040500081E001C080E0DF91CF9108951F920F921F
:104060000FB60F9211242F933F934F935F936F934B
:104070007F938F939F93AF93BF93EF93FF93E091C1
:10408000F505F091F605309709F451C0968DA68597
:10409000B785858591FF04C09C91892329F447C089
:1040A0009C91892309F043C0A389B4899C91858997
:1040B000809589238C93868997890197F1F7608D84
:1040C000718DA685B785558538E020E0CB01019735
:1040D000F1F7822F90E095958795282F4C914523F5
:1040E00009F02068315091F7868D81FD20958091EF
:1040F000B40590E001968F7399273091B305381776
:1041000049F0A091B405B0E0AB54BA4F2C93809322
:10411000B40503C0868D8160868F828D938D019753
:10412000F1F7A389B4899C918589892B8C93FF91A0
:10413000EF91BF91AF919F918F917F916F915F911F
:104140004F913F912F910F900FBE0F901F90189598
:1041500025E033E0FC01318320830C94EF1F1F9393
:10416000CF93DF93EC01162F6E8D6695617081E021
:104170006827812F0E941B0F61E0812F0E94DF0EB4
:10418000812F90E0FC01EA5CFB4FE491E88BFC019D
:10419000E55BFB4FE491F0E0EE0FFF1FE659FB4FAC
:1041A000859194919A8B898BDF91CF911F9108957E
:1041B0001F93CF93DF93EC01162F60E0812F0E94B5
:1041C000DF0E8E8D81FD04C061E0812F0E941B0FE8
:1041D0001C87812F90E0FC01EA5CFB4FE491ED87A6
:1041E000FC01E55BFB4FE491F0E0EE0FFF1FE05AAE
:1041F000FB4F859194919F878E87DF91CF911F917F
:1042000008951F93CF93DF93EC01162F1B821A8220
:1042100088EE93E0A0E0B0E08C839D83AE83BF8303
:1042200085E093E0998388831F8A1E8A198E188EF1
:104230001B8E1A8E1D8E1C8E8E8D8E7F20FB81F91B
:104240008E8F642FCE010E94AF20612FCE01DF91AF
:10425000CF911F910C94D820CF93DF93EC019A015A
:10426000AB011B8E1A8E198E188E1F8A1E8A60E073
:1042700079E08DE390E00E94C832F90124303105E5
:1042800018F0C901039702C081E090E09D8F8C8FE8
:104290006C85663108F069C0C901969587958431AF
:1042A000910510F0439702C081E090E09F8B8E8BC8
:1042B000369718F0C901059702C081E090E0998F08
:1042C000888FC901880F991F280F391F36952795A8
:1042D000369527952D30310518F02C50310902C044
:1042E00021E030E03B8F2A8F90916800683050F0D9
:1042F00021E06E3008F420E081E001C0880F2A95AB
:10430000EAF701C084E0892B809368009C8598308F
:1043100038F09E3040F0963148F020E030E008C0A0
:104320002DE630E005C02BE630E002C02CE630E0A0
:104330003C8B2B8B983030F481E001C0880F9A952C
:10434000EAF70EC0292F30E09E3018F428503109CA
:1043500002C02E50310981E001C0880F2A95EAF78A
:104360008D8B8C8D9D8D0197F1F7CE01DF91CF91D3
:104370000C940520CF93CFB7F8948091FA05811162
:1043800027C0E5E5F4E08491E0E4F4E09491E82FBF
:10439000F0E0EE0FFF1FEC58FB4FA591B491EC91AC
:1043A000E92321F461E08AE00E941B0F61E08AE0CA
:1043B0000E94DF0E8CB580618CBD8CB580648CBD95
:1043C00061E08DE00E94DF0E61E08BE00E94DF0E75
:1043D0008091FA058F5F8093FA05CFBFCF91089542
:1043E000CF93DF93EC0163E173E087E095E00E94F7
:1043F0009B0B6EE774E087E095E00E94A80BCE016E
:10440000DF91CF910C94172BCB0121E02093FC0579
:10441000BA010E94422C811103C082E090E008950D
:1044200081E090E008950C94702AE3EBF1E083E0E2
:1044300090E0329122912F3F3F4F19F00197C8F73A
:104440008FEF089590E0FC01EE0FFF1FE555FE4F42
:10445000918380830895E82FF0E0EE0FFF1FE5556C
:10446000FE4F8FEF9FEF9183808308950F9300E0BD
:1044700020E040E060E08DEF95E00E940E0B0F9190
:104480000895CF93DF931F92CDB7DEB76983DC0128
:10449000ED91FC910280F381E02D41E050E0BE01FE
:1044A0006F5F7F4F09950F90DF91CF910895CF9364
:1044B000DF93EC01E881F9810084F185E02DCE01E4
:1044C0000995892B41F0E881F9810284F385E02D7B
:1044D000CE010995EFCFDF91CF91089521E0FC0146
:1044E00084858F3F09F420E0822F0895FC018485A4
:1044F0008F3F21F00E947F2697FF02C080E090E06E
:1045000008950F931F93CF93DF9300D0CDB7DEB7FD
:104510008C01DC01ED91FC910084F185E02D099581
:10452000892BD1F019829E012F5F3F4F40E0BE01E1
:104530006E5F7F4FF80184850E940528898188235A
:1045400041F0D8011C968C910E942B228FEFF8012C
:1045500084878A8190E002C08FEF9FEF0F900F90C9
:10456000DF91CF911F910F9108950F931F93CF93D8
:10457000DF9300D0CDB7DEB78C01DC01ED91FC916B
:104580000084F185E02D0995892BD1F019829E01D7
:104590002F5F3F4F41E0BE016E5F7F4FF801848582
:1045A0000E9405288981882341F0D8011C968C91AE
:1045B0000E942B228FEFF80184878A8190E002C04D
:1045C0008FEF9FEF0F900F90DF91CF911F910F9181
:1045D0000895EF92FF920F931F93CF93DF93EC0117
:1045E0008B017A01E881F9810084F185E02D09953C
:1045F000892B59F0A701B8018C85DF91CF911F91CC
:104600000F91FF90EF900C94C52C8FEF9FEFDF91EF
:10461000CF911F910F91FF90EF9008950F931F93EB
:10462000CF93DF93EC018C85843018F4411551054C
:1046300029F481E090E09B838A832FC08A010E9445
:10464000E12881112DC081E090E09B838A8363E1A2
:1046500073E087E095E00E949B0B65EA74E087E0D9
:1046600095E00E94690B65E272E087E095E00E94A8
:104670009B0B4AE050E06C8587E095E00E943B0C84
:1046800060EA7FE080E090E00E94170EE881F98107
:104690000488F589E02DCE01099580E090E001C005
:1046A000C801DF91CF911F910F910895CF93DF93B0
:1046B000FC0124852F3F11F1EC0163E173E087E0F9
:1046C00095E00E949B0B66E974E087E095E00E940C
:1046D000690B65E272E087E095E00E949B0B4AE07F
:1046E00050E06C8587E095E00E943B0C8C850E9431
:1046F0002F2C8C850E942B228FEF8C87DF91CF91FE
:104700000895FC011382128288EE93E0A0E0B0E0ED
:1047100084839583A683B78382E293E09183808329
:104720008FEF84870895DF92EF92FF920F931F938C
:10473000CF93DF93EC018B017A01D22E63E173E01A
:1047400087E095E00E949B0B63ED74E087E095E0C5
:104750000E94690B65E272E087E095E00E949B0B86
:10476000B80187E095E00E94CC0B0E9415228C874F
:104770008F3F71F02D2D482FB701C8010E94C22B29
:10478000882391F08C850E94222281E090E00EC067
:1047900063E173E087E095E00E949B0B6FEB74E0B0
:1047A00087E095E00E94A80B80E090E0DF91CF9138
:1047B0001F910F91FF90EF90DF90089520E00C94EF
:1047C0009323CF92DF92EF92FF920F931F93CF9399
:1047D000DF93CDB7DEB760970FB6F894DEBF0FBE9C
:1047E000CDBF7C01FB016A0185811F928F9384817B
:1047F0001F928F9383811F928F9382811F928F9339
:1048000081EE94E09F938F938E010F5F1F4F1F9354
:104810000F930E942D3620E0A601B801C7010E9427
:1048200093230FB6F894DEBF0FBECDBF60960FB6D0
:10483000F894DEBF0FBECDBFDF91CF911F910F91D6
:10484000FF90EF90DF90CF9008951F93CF93DF9369
:10485000EC018C858F3F91F00E947F26892B11F00F
:1048600014E00DC08C850E94DA29182F8111F8CF31
:104870008C850E942B228FEF8C8701C010E0812F46
:10488000DF91CF911F9108950E94252491E08430FB
:1048900009F090E0892F08950F9300E020E040E0B8
:1048A00060E083E096E00E940E0B0F9108958091E6
:1048B0003D0690E020913E06821B9109089590915B
:1048C0003E0680913D06981750F4E92FF0E0E15C38
:1048D000F94F208130E09F5F90933E0602C02FEF9A
:1048E0003FEFC9010895E0913E0680913D06E8172B
:1048F00030F4F0E0E15CF94F808190E008958FEFB3
:104900009FEF08950895CF93DF93EC01E091150692
:10491000F09116063097F1F090913E0680913D0699
:104920009817C0F090E0292F30E02617370754F48D
:10493000DE01A20FB31F4C91D901A15CB94F4C937A
:104940009F5FF1CF10923E0660933D06CB01DF9151
:10495000CF910994DF91CF910895E0911706F091DE
:104960001806309729F010921B0610921A06099427
:104970000895CF92DF92EF92FF920F931F93CF9300
:10498000DF937C01CB018A0120911906222389F053
:10499000EB016B01C40ED51ECC15DD0569F06991E4
:1049A000D701ED91FC910190F081E02DC7010995AF
:1049B000F3CF642F0E94732EC801DF91CF911F9116
:1049C0000F91FF90EF90DF90CF900895CF93DF93FA
:1049D0001F92CDB7DEB76983209119062223D1F04B
:1049E00020911A06203240F021E030E0FC013383B0
:1049F000228380E090E015C080911B06E82FF0E054
:104A0000E45EF94F998190838F5F80931B068093BA
:104A10001A0605C061E0CE0101960E94732E81E066
:104A200090E00F90DF91CF910895FC0113821282E4
:104A300088EE93E0A0E0B0E084839583A683B783FB
:104A400080E493E091838083089510923E06109253
:104A50003D0610921B0610921A060E94B72D8DEA91
:104A600094E20E94A02E83E894E20C949B2E81E0B5
:104A70008093190660933C0610921B0610921A064A
:104A800008950F93062F21E040911A066CE176E01D
:104A900080913C060E941D2E10921B0610921A0651
:104AA000109219060F9108954F925F926F927F9224
:104AB000AF92BF92CF92EF92FF920F931F93CF933B
:104AC000DF935C01F62ED42F28013901EE2021F16D
:104AD0000E943725CE2DC43008F0C3E0C150C0F08D
:104AE00028E0C29FC0011124A301920104C0569581
:104AF0004795379527958A95D2F7CA01B901D5010F
:104B0000ED91FC910190F081E02DC5010995E6CF72
:104B100060E0C5010E9441254D2FD13208F040E2EE
:104B20002C2D6FE376E08F2D0E94D52D10923E063E
:104B300080933D06DF91CF911F910F91FF90EF90F1
:104B4000CF90BF90AF907F906F905F904F900895FF
:104B5000CF92EF920F931F93C22EE12C00E010E052
:104B600098010E9454251F910F91EF90CF900895C6
:104B700021E00C94A82561E00C94412589E096E0A1
:104B80000C9415250895FC01862F6083718360E0E5
:104B90000E94DF0E81E00895CF92DF92EF92FF92A4
:104BA000FC0180810E94990EBC01990F880B990B22
:104BB0000E94F50727E630E443E55AE30E948108A6
:104BC0006B017C0120E030E0A9010E94AE3181112F
:104BD00003C06EE473E03FC02DEC3CEC4CEC5EE3B4
:104BE000C701B6010E94AE3187FF03C066E773E0DC
:104BF00032C060E973E087E095E00E949B0B22E001
:104C000030E0B701A60187E095E00E949A0D69E9BE
:104C100073E087E095E00E94CC0B2DEC3CEC4CEC73
:104C20005EE3C701B6010E94860720E030E44CE94C
:104C300055E40E9481082DEC3CEC4CEC5FE30E94B3
:104C4000B331AB01BC0122E030E087E095E00E9487
:104C50009A0D6BE973E087E095E00E94CC0B60ED64
:104C600077E080E090E00E94170E60E070E0CB01FA
:104C7000FF90EF90DF90CF90089508954F925F924C
:104C80006F927F92AF92BF92CF92DF92EF92FF929C
:104C90000F931F93CF93DF93CDB7DEB729013A016E
:104CA0009B01AC01241935094609570989899A895C
:104CB000AB89BC89BC01CD016A197B098C099D09AE
:104CC0000E948232A8019701241935094609570923
:104CD0000E94C832CA01B9016A0D7B1D8C1D9D1D41
:104CE000DF91CF911F910F91FF90EF90DF90CF90C8
:104CF000BF90AF907F906F905F904F900895CF934B
:104D00004091660650916706609168067091690649
:104D1000141615061606170644F4909165069817A2
:104D200011F0911102C0CA01CBC0C82F8091780642
:104D300090917906DC01ED91FC910084F185E02DE4
:104D40000995892B19F480E090E0BAC06FE973E00F
:104D500080917806909179060E94A431882399F376
:104D600041E060E080917806909179060E94803061
:104D7000609365068091780690917906DC01ED914B
:104D8000FC910284F385E02D099541E060E080917B
:104D90007806909179060E94803060936606709341
:104DA00067068093680690936906809178069091D3
:104DB0007906DC01ED91FC910284F385E02D0995E3
:104DC00041E060E080917806909179060E94803001
:104DD00060935F068091780690917906DC01ED91F1
:104DE000FC910284F385E02D099541E060E080911B
:104DF0007806909179060E948030609360068091D9
:104E0000780690917906DC01ED91FC910284F3859E
:104E1000E02D099541E060E0809178069091790657
:104E20000E948030609361068091780690917906A7
:104E3000DC01ED91FC910284F385E02D099541E0C0
:104E400060E080917806909179060E9480306093AE
:104E500062068091780690917906DC01ED91FC91D3
:104E60000284F385E02D099580917806909179066A
:104E7000DC01ED91FC910284F385E02D099541E080
:104E800060E080917806909179060E94803070935E
:104E90006406609363068091780690917906DC0140
:104EA000ED91FC910284F385E02D099580916506D2
:104EB000C81711F0C11147CF80916606909167061F
:104EC000CF9108953F924F925F926F927F928F920F
:104ED0009F92AF92BF92CF92DF92EF92FF920F9389
:104EE0001F93CF93DF936C012B01342E80E796E064
:104EF0000E942A2D0E94E60D4B015C0166246A94F3
:104F0000762C0D2C000CEE08FF080E94E60DDC014B
:104F1000CB0188199909AA09BB098C159D05AE0515
:104F2000BF0508F046C08FEF6816780609F041C04B
:104F30008091780690917906DC01ED91FC910084D6
:104F4000F185E02D0995892B01F3809178069091E8
:104F50007906DC01ED91FC910284F385E02D099541
:104F6000682F80E796E00E94582D4114510451F0BB
:104F7000B20180E796E00E946B2D882319F085E04E
:104F8000682E712C332009F203EB11E0C0E0D0E071
:104F9000F801619171918F0180E796E00E946B2D7D
:104FA000882311F03E01B1CF2196C530D10581F79C
:104FB000ACCF0E94E60DDC01CB0188199909AA0942
:104FC000BB098C159D05AE05BF0560F063E173E07C
:104FD00087E095E00E949B0B6DEE74E087E095E022
:104FE0000E94A80BC301DF91CF911F910F91FF90F9
:104FF000EF90DF90CF90BF90AF909F908F907F9079
:105000006F905F904F903F9008958F929F92AF92D4
:10501000BF92EF92FF920F931F93CF93DF93C091B4
:105020006506C813C2C07901D42F8B010E94E60D1A
:105030004B015C018091780690917906DC01ED913D
:10504000FC910084F185E02D0995892B09F473C04A
:105050008091780690917906DC01ED91FC91DD2339
:1050600039F00484F585E02D0995F801808319C095
:105070000284F385E02D0995F8018083809166060E
:1050800090916706A0916806B09169060197A10901
:10509000B1098093660690936706A0936806B09363
:1050A00069068091660690916706A0916806B091A6
:1050B0006906892B8A2B8B2B11F081E077C065E084
:1050C00070E080E090E00E94170E80917806909149
:1050D0007906DC01ED91FC910084F185E02D0995C4
:1050E000892B59F38091780690917906DC01ED9136
:1050F000FC910484F585E02D0995D0E0E0968C17AD
:105100009D07D9F640E065EA73E084EF91E00E94E4
:105110006227059761F063E173E087E095E00E9404
:105120009B0B6CE675E087E095E00E94A80B81E0A0
:10513000F70180833BC00E94E60DDC01CB0188199A
:105140009909AA09BB09803D9740A105B10508F45A
:1051500071CF63E173E087E095E00E949B0B63E60B
:1051600075E087E095E00E94690B65E272E087E0F8
:1051700095E00E949B0B40916606509167066091F6
:105180006806709169062AE030E087E095E00E94A9
:10519000AD0C109266061092670610926806109287
:1051A000690610926506D8011C9280E0DF91CF91CC
:1051B0001F910F91FF90EF90BF90AF909F908F90B5
:1051C0000895CF92DF92EF92FF920F931F93CF93A8
:1051D000DF93CDB7DEB764970FB6F894DEBF0FBE8E
:1051E000CDBF6B018A011F934F931F928F9382E56E
:1051F00095E09F938F939E012F5F3F4F79013F93DF
:105200002F930E942D36B7018091780690917906F0
:105210000E94CC0B40E06FEA73E088EE93E00E94BE
:1052200062270FB6F894DEBF0FBECDBF059749F0D9
:1052300063E173E087E095E00E949B0B67E375E014
:105240001EC08091780690917906DC01ED91FC9169
:105250000280F381E02DA801B601099541E060E0EC
:1052600070E080ED97E00E946227039771F063E1A0
:1052700073E087E095E00E949B0B6CE175E087E0AE
:1052800095E00E94A80B80E001C081E064960FB613
:10529000F894DEBF0FBECDBFDF91CF911F910F916C
:1052A000FF90EF90DF90CF900895809178069091D5
:1052B0007906DC01ED91FC910084F185E02D0995E2
:1052C0001816190664F48091780690917906DC012D
:1052D000ED91FC910284F385E02D0995E6CF0895C8
:1052E000AF92BF92CF92DF92EF92FF920F931F93F4
:1052F000CF93DF935C016B017A01E901188281E0B1
:105300000E945529B50180917806909179060E94F6
:10531000A80B41E0B60188EE93E00E946227853039
:10532000910571F580E796E00E94302D41E0B701CC
:1053300084EF91E00E9462270597C9F4F70101907C
:105340000020E9F73197AF014E195F09980121500C
:105350003109BE0180E796E00E94A42D41E060E0A3
:1053600070E080ED97E00E94622781E018C063E161
:1053700073E087E095E00E949B0B6AE075E00AC04D
:10538000059760F063E173E087E095E00E949B0B76
:105390006DEF74E087E095E00E94A80B80E0DF915C
:1053A000CF911F910F91FF90EF90DF90CF90BF9022
:1053B000AF900895EF92FF920F931F93CF93DF93D7
:1053C000CDB7DEB76E970FB6F894DEBF0FBECDBF78
:1053D0001F928F9382E296E09F938F93CE01019666
:1053E0007C019F938F930E942D360AE010E09E016E
:1053F0002B5E3F4F43EA53E0B70185E196E00E9400
:1054000070290F900F900F900F900F900F906E9645
:105410000FB6F894DEBF0FBECDBFDF91CF911F91C5
:105420000F91FF90EF9008954F925F926F927F924D
:105430008F929F92AF92BF92CF92DF92EF92FF92A4
:105440000F931F93CF93DF93CDB7DEB74C016B0162
:105450005A0139014DB65EB6CB010E9492350196D4
:105460002DB73EB7281B390B0FB6F8943EBF0FBEC1
:105470002DBF8DB79EB701967C01B6010E948B357A
:10548000C5010E94923501962DB73EB7281B390BF6
:105490000FB6F8943EBF0FBE2DBF8DB79EB70196D5
:1054A0006C01B5010E948B359301A601B701C401BF
:1054B0000E9470290FB6F8945EBE0FBE4DBEDF91FC
:1054C000CF911F910F91FF90EF90DF90CF90BF9001
:1054D000AF909F908F907F906F905F904F900895C6
:1054E0000F931F93CF93DF93CDB7DEB72A970FB6F5
:1054F000F894DEBF0FBECDBF0AE010E09E012F5F23
:105500003F4F46E456E06EE376E081E396E00E948A
:10551000142A882371F0CE0101960E946D359C01FA
:10552000225031092330310530F0059731F080E009
:1055300005C08FEF03C081E001C083E02A960FB65B
:10554000F894DEBF0FBECDBFDF91CF911F910F91B9
:1055500008950F931F9310926A0606E010E02AE662
:1055600036E042E156E065E076E08EEF95E00E949D
:10557000142A8AE696E01F910F9108950F931F93C6
:10558000CF93DF938C01EB0181E00E945529B80194
:1055900080917806909179060E94A80B41E060E026
:1055A00070E0CE01DF91CF911F910F910C94622793
:1055B00068EE73E08BEC96E00E94BE2A68EB7BE01D
:1055C00080E090E00E94170E80E00E94552968EE6E
:1055D00073E086EC96E00E94BE2A68EE73E08AEBE8
:1055E00096E00E94BE2A68EC70E080E090E00E94A5
:1055F000170E68EE73E08EEA96E00E94BE2A68EE0F
:1056000073E080EA96E00E94BE2A68EE73E080E9CB
:1056100096E00E94BE2A68EE73E082E896E00E945F
:10562000BE2A68EC70E080E090E00C94170ECF93F7
:10563000DF939093790680937806C5E0D0E068EE1A
:1056400073E088E297E00E94BE2A892BE1F068EEC1
:1056500073E080E090E00E94170E219781F763E1EC
:1056600073E087E095E00E949B0B6BE077E087E0BA
:1056700095E00E94A80B68E873E180E090E0DF917C
:10568000CF910C94170E0E94D82A0E94A92A8091CB
:105690006A068153823020F480916B068E32E9F0E5
:1056A00063E173E087E095E00E949B0B6DEE76E08E
:1056B00087E095E00E94690B65E272E087E095E083
:1056C0000E949B0B6AE676E087E095E00E94CC0B97
:1056D00060EA7FE080E090E0D2CF63E173E087E0B2
:1056E00095E00E949B0B62ED76E087E095E00E94DA
:1056F000690B65E272E087E095E00E949B0B6AE629
:1057000076E087E095E0DF91CF910C94CC0BCF93BE
:10571000DF93CDB7DEB7C85CD1090FB6F894DEBF12
:105720000FBECDBF9E012F523F4FC353DF4F488165
:105730005981CD5CD04068EC70E0CE0101960E94AA
:105740004F3681E00E945529BE016F5F7F4F8091E7
:105750007806909179060E94CC0B41E060E070E001
:10576000C153DF4F88819981CF5CD0400E9462276E
:10577000C853DF4F0FB6F894DEBF0FBECDBFDF9129
:10578000CF910895FF920F931F93CF93DF93D82F5C
:10579000192F062FF72EC42F21111AC07F936F9354
:1057A0009F938F931F924F9383E18F9388E88F93FA
:1057B00081EE95E09F938F930E94872BFC018DB71C
:1057C0009EB70A960FB6F8949EBF0FBE8DBF3DC020
:1057D000223001F568EE73E08EEC95E00E94BE2A5F
:1057E000FF920F931F93DF931F92CF9383E18F93C9
:1057F00088E88F9381EB95E09F938F930E94872B8E
:10580000FC018DB79EB70A960FB6F8949EBF0FBEE7
:105810008DBF1BC02130C9F47F936F939F938F93EB
:105820001F924F9383E18F9388E88F9380E995E0EF
:105830009F938F930E94872BFC018DB79EB70A968A
:105840000FB6F8949EBF0FBE8DBF81E0EF2B09F01D
:1058500080E0DF91CF911F910F91FF9008951F92EB
:105860008F938FE08F9380EA8F9381E895E09F93E9
:105870008F930E94872B0F900F900F900F900F9097
:105880000F900895CF93DF93D82FC92F7F936F93F5
:105890009F938F938EE48F9380E28F938BE696E0B5
:1058A0009F938F930E94872B2DB73EB7285F3F4F62
:1058B0000FB6F8943EBF0FBE2DBF63E173E0892B96
:1058C000C1F487E095E00E949B0B6EE576E087E0EF
:1058D00095E00E94690B65E272E087E095E00E9426
:1058E0009B0B6D2F7C2F87E095E00E94CC0B81E015
:1058F00020C087E095E00E949B0B69E476E087E09A
:1059000095E00E94690B65E272E087E095E00E94F5
:105910009B0B6D2F7C2F87E095E00E94CC0B68EEEF
:1059200073E080E090E00E94170E80E00E9455290D
:1059300080E0DF91CF910895CF92DF92EF92FF92B6
:105940000E94E60D6B017C018091780690917906AA
:10595000DC01ED91FC910284F385E02D099597FF20
:105960000FC00E94E60DDC01CB018C199D09AE0928
:10597000BF09883E9340A105B10530F38FEF9FEF3B
:10598000FF90EF90DF90CF900895CF92DF92EF924B
:10599000FF920F931F93CF93DF938A019091650637
:1059A000981335C08091660690916706A0916806AD
:1059B000B09169066A01E12CF12C8C159D05AE05AC
:1059C000BF050CF48C01EB017B01E00EF11ECE153E
:1059D000DF05D9F00E949C2C8F3F2FEF9207D1F06A
:1059E00089938091660690916706A0916806B091B0
:1059F00069060197A109B10980936606909367062D
:105A0000A0936806B0936906E2CFC80105C080E0A4
:105A100090E002C08FEF9FEFDF91CF911F910F9128
:105A2000FF90EF90DF90CF9008950F9300E020E07B
:105A300040E060E08AE796E00E940E0B60E270E0D2
:105A400080E796E00F910C943D2D80E796E00C9452
:105A5000292D0895FC0122813381378326830895FF
:105A6000FC018281938197838683408151814F5FBE
:105A70005F4F60E070E00C94B6350F931F93CF93A7
:105A8000DF938C01EB01FC0171836083CB010196F4
:105A90000E94E22FF80193838283C80FD91FD58318
:105AA000C483C801DF91CF911F910F910C94302DC9
:105AB000FC01A681B7816C938681978101969783BB
:105AC0008683248135818217930720F08281938118
:105AD000978386830895CF93DF93DC01FB010190C8
